:020000040800F2
:1000000020430020011B00087D0400087F04000835
:1000100083040008870400088B0400080000000027
:10002000000000000000000000000000AD0100081A
:100030008F04000800000000350200088502000857
:100040001B1B00081B1B00081B1B00081B1B0008B8
:100050001B1B00081B1B00081B1B00081B1B0008A8
:100060001B1B00081B1B00081B1B00081B1B000898
:100070001B1B00081B1B00081B1B00081B1B000888
:100080001B1B00081B1B00081B1B00081B1B000878
:100090001B1B00081B1B00081B1B00081B1B000868
:1000A0001B1B00081B1B00081B1B00081B1B000858
:1000B0001B1B00081B1B00081B1B00081B1B000848
:1000C0001B1B00081B1B00081B1B00081B1B000838
:1000D0001B1B00081B1B00081B1B00081B1B000828
:1000E0001B1B00081B1B00081B1B00081B1B000818
:1000F0001B1B00081B1B00081B1B00081B1B000808
:100100001B1B00081B1B00081B1B00081B1B0008F7
:100110001B1B00081B1B00081B1B00081B1B0008E7
:100120001B1B00081B1B00081B1B00081B1B0008D7
:10013000DFF80CD002F0D6F900480047B102000801
:100140002043002080F309887047EFF3098070474F
:10015000684680F3098804480078C00714BF02206D
:10016000032080F3148870473C4C0008DFF818C067
:10017000EFF305831B0618BF6047EFF31483DB071B
:1001800008BF604700DF7047FB250008DFF818C094
:10019000EFF305831B0618BF6047EFF31483DB07FB
:1001A00008BF604700DF7047A1270008EFF3098010
:1001B000816911F8021C39BB90E80F10E047EFF39A
:1001C000098C194B93E80600914218D059B10CB430
:1001D0004FF0010381F826302CE9F00FC1F82CC054
:1001E00002F08AFC0CBC1A60D2F82CC0BCE8F00FFC
:1001F00092F826308CF309881BB192F82500CCF8D0
:1002000000006FF0020E704710B5084A1268914264
:1002100009D8074C54F8214090E80F10A047EFF39D
:10022000098C8CE80F0010BD740000200825000820
:100230000825000802F092FB114B93E8060091425A
:100240001BD00CB44FF0000381F82630EFF3098C7B
:100250002CE9F00FC1F82CC002F04EFC0CBC1A6067
:10026000D2F82CC0BCE8F00F8CF3098892F8263045
:100270001BB192F82530CCF800306FF0020E7047B9
:100280007400002002F00AFDD6E7000002F0B4F985
:1002900002F004FDD0E7000000F037F800F074F839
:1002A00000F0B5F800F0D8F80020DFF824C000DF37
:1002B00010B54FF4E06001F023FDFFF749FF002285
:1002C0001146AFF22B00DFF80CC000DF002010BD9C
:1002D000B12D0008452B000800F0D8FC00F04DFBC4
:1002E0000F4800F005FE0FE00E49002000F09EFCD4
:1002F0000C480078182803D01821002000F06EFC6C
:100300000020DFF824C000DFEEE700231A46642156
:10031000AFF23B00DFF814C000DF0549086070470A
:100320009C00002004000020B12D00081D2D0008B5
:100330000000002000F0D2FB25E000F01BFC184973
:10034000087000F0E9FB174908701548007801288B
:1003500002D0FF2806D102E001F051FB02E001F0DB
:1003600016FB00BF00BF0F480078012802D002280A
:1003700004D102E001F0BFFA00E000BF00BF02209C
:10038000DFF824C000DFD8E700231A465A21AFF275
:100390005B00DFF818C000DF054908607047000007
:1003A0000C0000200D0000204D2700081D2D000826
:1003B0000800002000F068FB00F0DEF826E000F006
:1003C0007AFB184908800846008817490988484080
:1003D000164908801348008813490880134800888C
:1003E00009880840124908800846007810F0010F7B
:1003F00001D001F046FB0E48007810F0020F01D04A
:1004000001F03FFB0A20DFF82CC000DFD7E7002314
:100410001A465021AFF26300DFF81CC000DF074925
:10042000086070471A000020160000201400002009
:10043000180000204D2700081D2D00081000002086
:1004400000F0C0FF07E001F0BAF900F0A2FA322094
:10045000DFF81CC000DFF6E700231A460A21AFF2DE
:100460001F00DFF810C000DF03490860704700007C
:100470004D2700081D2D00081C000020704700BFFC
:10048000FEE700BFFEE700BFFEE700BFFEE77047E4
:1004900020B1012809D0022815D10DE05249096880
:1004A00021F48071504A11600DE04F49096841F410
:1004B00080714D4A116006E04B49096881F48071F2
:1004C000494A116000BF00BF704720B1012809D020
:1004D000022815D10DE04549C96821F40071434A4D
:1004E000D1600DE04149C96841F400713F4AD160D3
:1004F00006E03E49C96881F400713C4AD16000BF02
:1005000000BF704720B1012809D0022815D10DE0A5
:100510003649C96821F48071344AD1600DE033490D
:10052000C96841F48071314AD16006E02F49C96839
:1005300081F480712D4AD16000BF00BF704720B1A7
:10054000012809D0022815D10DE02849C96821F0F9
:100550008001264AD1600DE02449C96841F080013C
:10056000224AD16006E02149C96881F080011F4A12
:10057000D16000BF00BF704708B50121142001F011
:1005800097FD0020FFF7DBFF0020FFF7BBFF0020F7
:10059000FFF79BFF0020FFF77BFF10208DF8030083
:1005A00003208DF802008020ADF8000069460F4856
:1005B00001F046FE4FF48070ADF8000069460B482C
:1005C00001F03EFE4FF40070ADF8000069460748A8
:1005D00001F036FE4FF48070ADF800006946024825
:1005E0000C3801F02DFE08BD0C0801400010014040
:1005F00008B50121402001F05BFD8B48006840F008
:100600000400894908600846006840F00800086056
:1006100003208DF8020010208DF803000420ADF8AF
:100620000000694680480C3801F00AFE0820ADF849
:10063000000069467C480C3801F002FE08BD10201D
:1006400000E000BF0100A0F1010290B2F9D17047B3
:1006500010B57548006840F004007349086008460A
:10066000006840F008000860FFF7E9FF6E48006886
:1006700020F008006C490860FFF7E1FF10BD10B5DD
:100680006948006820F0040067490860084600686F
:1006900020F008000860FFF7D2FFFFF7D0FF6248A4
:1006A000006840F0040060490860FFF7C8FF5E483A
:1006B000006840F008005C49086010BD5A48001FFF
:1006C0000068C0F3C0007047002006E0411C89B2FA
:1006D0000846B1F57A7F00D170475349091F096870
:1006E000C1F3C0010029F1D100BFF5E770B50446A0
:1006F000002527E0FFF7A3FF4B48006820F0040027
:1007000049490860FFF79BFF14F0800F06D0464868
:10071000006840F008004449086005E0424800686D
:1007200020F0080040490860FFF789FF3E48006854
:1007300040F004003C490860FFF781FF6006040EAA
:10074000681CC5B2082DD5DB3748006820F00400CE
:1007500035490860FFF773FF3348006840F0080030
:1007600031490860FFF76BFF2F48006840F0040034
:100770002D490860FFF763FF70BD2DE9F041044685
:100780000D4649E0002723E07006060EFFF757FFED
:100790002548006820F0040023490860FFF74FFF58
:1007A0002148006840F008001F490860FFF747FF34
:1007B0001D48006840F004001B490860FFF73FFF38
:1007C0001948001F0068C0F3C0000643781CC7B278
:1007D000082FD9DB1448006820F004001249086093
:1007E000FFF72DFF35B11048006820F008000E49D2
:1007F000086005E00C48006840F008000A490860FD
:10080000FFF71DFF0848006840F004000649086033
:10081000FFF715FF04F8016B2800A5F101018DB267
:10082000B0D1BDE8F08100000C18014008B50121ED
:10083000402001F03DFC9248006820F00100904902
:10084000086010208DF8030003208DF802000120BD
:10085000ADF8000069468A480C3801F0F1FC08BD8B
:1008600010B50446FFF7F4FE7820FFF73FFF0020A5
:10087000FFF73CFF2046FFF739FFFFF700FF10BDF1
:1008800000207F49096821F001017D4A116000E0E4
:1008900000BF0146421C90B2B1F57A7FF8D1784989
:1008A000096841F00101764A1160704710B5D52002
:1008B000FFF7D6FF8020FFF7D3FFA820FFF7D0FF78
:1008C0003F20FFF7CDFFD320FFF7CAFF0020FFF73F
:1008D000C7FF4020FFF7C4FFA020FFF7C1FFC020E3
:1008E000FFF7BEFFDA20FFF7BBFF1220FFF7B8FFCC
:1008F0008120FFF7B5FF7F20FFF7B2FFD920FFF778
:10090000AFFFF120FFF7ACFFDB20FFF7A9FF40208E
:10091000FFF7A6FFA420FFF7A3FFA620FFF7A0FF85
:100920008D20FFF79DFF1420FFF79AFF2020FFF78F
:1009300097FF0020FFF794FF2120FFF791FF002091
:10094000FFF78EFF7F20FFF78BFF2220FFF788FF46
:100950000020FFF785FF0720FFF782FFAF20FFF79A
:100960007FFF10BD002004E00021464A1154411CC5
:1009700088B2B0F5806FF7DB704710B5FFF738FE2F
:10098000FFF754FFFFF77CFFFFF7ECFFFFF78EFF49
:1009900010BD10B50020FFF763FF1020FFF760FFC8
:1009A000B020FFF75DFFFFF753FE7820FFF79EFEB4
:1009B0004020FFF79BFE002405E03249085DFFF769
:1009C00095FE601C84B2B4F5806FF6DBFFF757FE2E
:1009D00010BD30B57F2801DC3F2900DD30BD22B1DC
:1009E000012A12D0022A30D11FE0CB1000EBC31332
:1009F000244CE35C01F007050124AC40A343CC1078
:100A000000EBC4141F4D2B551FE0CB1000EBC3139C
:100A10001C4CE35C01F007050124AC402343CC10DF
:100A200000EBC414174D2B550FE0CB1000EBC31394
:100A3000144CE35C01F007050124AC406340CC108A
:100A400000EBC4140F4D2B5500BF00BF00BFC5E71E
:100A500010B502467F2A01DC3F2901DD002010BDD0
:100A6000C81002EBC010074B185C01F0070401230B
:100A7000A340184201D00120F1E70020EFE7000079
:100A80000C180140A800002008B50121142001F035
:100A90000FFB04208DF803008020ADF800006946AC
:100AA0000C4801F0CDFB2020ADF8000069460A4853
:100AB00001F0C6FB08BD0020064908310968012283
:100AC00022EAD11108430449896822EA511140EA17
:100AD00041007047000801400010014008B50121A5
:100AE000042001F0E5FA48208DF803004020ADF81D
:100AF00000006946364801F0A3FB2020ADF8000055
:100B00006946334801F09CFB1020ADF800006946AF
:100B10002F4801F095FB08BD00202D4908310968D8
:100B2000012232EA111113D02A490988A1F58072F5
:100B3000F53A04D027490988491C264A11802549DD
:100B40000988B1F5FA7F01D1022012E0002010E0FF
:100B500020490988052901DA002007E01D49098894
:100B6000B1F5FA7F01DA012000E000200021194AE6
:100B70001180704700200021154A08321268C2F324
:100B80004011134A08321268C2F3801241EA42014E
:100B9000114A127802F003028A4217D00E4A1278E4
:100BA0009206120E0C4B1A701A4612780A431A70EB
:100BB0001A46127802F03F02072A03D0342A03D1E2
:100BC000012002E0FF2000E000BF00BF70470000EE
:100BD00000080140200000202200002070B50446DB
:100BE0000D4600BF00F084F8A02000F0CFF800F020
:100BF000B5F80028F6D1201200F0C8F800BF00F0C8
:100C0000ADF80028FBD1E0B200F0C0F800BF00F062
:100C1000A5F80028FBD1284600F0B8F800BF00F086
:100C20009DF80028FBD100F07AF870BD70B504463D
:100C30000D4600BF00F05CF8A02000F0A7F800F01F
:100C40008DF80028F6D1201200F0A0F800BF00F0C7
:100C500085F80028FBD1E0B200F098F800BF00F062
:100C60007DF80028FBD100F05AF800BF00F040F8F2
:100C7000A12000F08BF800F071F80028F6D10121D6
:100C8000284600F0CAF800F04AF870BD08B5012106
:100C9000082001F00DFA8C48006840F480408A4931
:100CA00008600846006840F40040086003208DF8A2
:100CB000020014208DF803004FF48040ADF80000CE
:100CC000694681480C3801F0BBFA4FF40040ADF89A
:100CD000000069467C480C3801F0B2FA08BD1020CB
:100CE00000E000BF0100A0F1010290B2F9D170470D
:100CF00010B57548006840F48040734908600846A4
:100D0000006840F400400860FFF7E9FF6E480068A3
:100D100020F400406C490860FFF7E1FF10BD10B5FA
:100D20006948006820F48040674908600846006808
:100D300020F400400860FFF7D2FFFFF7D0FF6248C1
:100D4000006840F4804060490860FFF7C8FF5E48D3
:100D5000006840F400405C49086010BD5A48001F1C
:100D60000068C0F3C0307047002006E0411C89B223
:100D70000846B1F57A7F00D170475349091F0968C9
:100D8000C1F3C0310029F1D100BFF5E770B50446C9
:100D9000002527E0FFF7A3FF4B48006820F48040C0
:100DA00049490860FFF79BFF14F0800F06D04648C2
:100DB000006840F400404449086005E0424800688B
:100DC00020F4004040490860FFF789FF3E48006872
:100DD00040F480403C490860FFF781FF6006040E44
:100DE000681CC5B2082DD5DB3748006820F4804068
:100DF00035490860FFF773FF3348006840F400404E
:100E000031490860FFF76BFF2F48006840F48040CD
:100E10002D490860FFF763FF70BD2DE9F0410446DE
:100E20000D4649E0002723E07006060EFFF757FF46
:100E30002548006820F4804023490860FFF74FFFF1
:100E40002148006840F400401F490860FFF747FF51
:100E50001D48006840F480401B490860FFF73FFFD1
:100E60001948001F0068C0F3C0300643781CC7B2A1
:100E7000082FD9DB1448006820F48040124908602C
:100E8000FFF72DFF35B11048006820F400400E49EF
:100E9000086005E00C48006840F400400A4908601A
:100EA000FFF71DFF0848006840F4804006490860CD
:100EB000FFF715FF04F8016B2800A5F101018DB2C1
:100EC000B0D1BDE8F08100000C0C014070B50446C3
:100ED0000D461646E9B2E0B23246FFF77AFD70BD24
:100EE00070B504460D46E9B2E0B2FFF7B1FD70BD42
:100EF0007F2101803F2141800021017106498160ED
:100F00000649086070470549096808717047034938
:100F100009688860704700009033000824000020B2
:100F20002DE9F04781460E4617463F480068806825
:100F30004168A9F120003C4A12689268927800FB4F
:100F4000021A0025A8462DE0002423E00AEBE80061
:100F5000007808F007020121914008420BD0324B83
:100F60001B681B7983F001027B1999B2331998B27F
:100F7000FFF7ACFF08E02C4B1B681A797B1999B27C
:100F8000331998B2FFF7A2FF601CC4B208F1010048
:100F90001FFA80F82448006880680078A042D5DCF9
:100FA000681CC5B22048006880684078A842CBDC45
:100FB000BDE8F08770B504460D4616460BE014F800
:100FC000010B32462946FFF7ABFF174800688068DF
:100FD0000078284485B220780028F0D170BD70B523
:100FE00004460D46164610480068007980F001005E
:100FF0000D49096808710BE014F8010B32462946C7
:10100000FFF78EFF0848006880680078284485B2A2
:1010100020780028F0D104480068007980F00100B1
:1010200001490968087170BD240000202DE9F041D4
:1010300004460F4615461E460AE0D448006800796B
:1010400080EA060239462046FFF740FF601C84B262
:10105000AC42F2DDBDE8F0812DE9F04107460C46D7
:1010600015461E460AE0C9480068007980EA060273
:1010700021463846FFF72AFF601C84B2AC42F2DDFD
:10108000BDE8F0812DE9F04106460F4615461C46A5
:10109000DDF8188043462A4639463046FFF7C6FF3A
:1010A00043462A4621463046FFF7C0FF43462246C4
:1010B00039463046FFF7D0FF434622463946284698
:1010C000FFF7CAFFBDE8F0812DE9F04706460C4660
:1010D00017469846DDF8209010E035460AE0AB4808
:1010E0000068007980EA090221462846FFF7EEFEF3
:1010F000681C85B2BD42F2DD601C84B24445ECDD63
:10110000BDE8F0872DE9F04106460C4617469846A3
:101110000EE0354608E09D480068027921462846E1
:10112000FFF7D4FE681C85B2BD42F4DD601C84B2BA
:101130004445EEDDBDE8F0812DE9FF4F81B0074663
:1011400088469246BA4505DDAAEB070084B24FF007
:10115000010B04E0A7EB0A0084B24FF0FF3B0498B8
:10116000404506DD0498A0EB080085B20120009000
:1011700006E00498A8EB000085B24FF0FF30009025
:10118000AC4222DD601046B24FF000091AE07F4801
:10119000006800790E9980EA010241463846FFF75F
:1011A00095FE07EB0B0087B2701946B2A64205DB2D
:1011B000009840441FFA80F8301B46B209F1010044
:1011C0001FFA80F9A145E2DD21E0681046B24FF038
:1011D00000091AE06D48006800790E9980EA010262
:1011E00041463846FFF772FE009840441FFA80F8E7
:1011F000301946B2AE4204DB07EB0B0087B2701B1E
:1012000046B209F101001FFA80F9A945E2DD05B0F7
:10121000BDE8F08F2DE9F04706460F469146984607
:1012200000244D460320A0EB49000FFA80FA6AE043
:10123000564B1B681B7983EA08027B1999B2331954
:1012400098B2FFF743FE514B1B681B7983EA0802F3
:101250007B1B99B2331998B2FFF738FE4B4B1B68D2
:101260001B7983EA08027B1999B2331B98B2FFF706
:101270002DFE464B1B681B7983EA08027B1B99B243
:10128000331B98B2FFF722FE404B1B681B7983EAA1
:1012900008023B1999B2731998B2FFF717FE3B4B3E
:1012A0001B681B7983EA08023B1B99B2731998B239
:1012B000FFF70CFE354B1B681B7983EA08023B19CC
:1012C00099B2731B98B2FFF701FE304B1B681B7974
:1012D00083EA08023B1B99B2731B98B2FFF7F6FD35
:1012E000BAF1000F06DA062000EB840050440FFA32
:1012F00080FA07E0601B0A2101EB800050440FFADE
:1013000080FA6D1E641CAC4292D9BDE8F0872DE9CD
:10131000F04704460F469046A078E17840EA01295C
:101320002079617940EA012AA41D00262AE00025DF
:1013300021E004EBE500007805F00702802111416F
:1013400008420CD0114B1B681B7983F0010208EB9B
:10135000060399B27B1998B2FFF7B8FD09E00B4B71
:101360001B681A7908EB060399B27B1998B2FFF74C
:10137000ADFD681C85B24D45DBDBE81D04EBE004E8
:10138000701C86B25645D2DBBDE8F08724000020F1
:1013900001B59DF80000062802D0082808D100E019
:1013A00000BF9DF80100012801D100F06AFB07E0B1
:1013B0009DF80100012802D1022000F084FB00BF4B
:1013C00000BF08BD10B55149514800F0D4F910BD17
:1013D00008B501237D2200210846FFF727FE0123DF
:1013E0003D2200217F20FFF737FE01237F223F218E
:1013F0000220FFF71BFE01233F2202210020FFF7FE
:101400002BFE01203C237C22032100900846FFF79D
:1014100039FE404800887D2809DA3F4800880228C4
:1014200005D13C480088401C3A49088028E03948EA
:1014300000887D2809D1384800883D2805DA3648DB
:101440000088401C344908801AE03248008802288D
:1014500009DD314800883D2805D12E480088401E0E
:101460002C4908800CE02B480088022808D12A4823
:101470000088022804DD28480088401E264908808C
:101480000120009024480388224802881F213F2021
:10149000FFF752FE21480078012802D12049087048
:1014A00006E01E4800781E2802D1FF201C49087063
:1014B0001A4800781A490978084418490870012325
:1014C000084602781F213F20FFF7A4FE08BD10B593
:1014D0000022114613A0FFF76DFD184800688068D0
:1014E000427800210FA0FFF77AFD14480068806859
:1014F0004078420000210BA0FFF75CFD10BD10B545
:10150000002211460E48FFF702FF10BD911300089C
:10151000280000203C0000203E0000204000002069
:10152000410000206162636465666768696A6B6C8C
:101530006D6E6F70717273740000000024000020E3
:10154000F04900082DE9F04781460E461746FC4851
:101550000068C06840694168A9F12000F84A126833
:10156000D2685269927800FB021A0025A8462EE044
:10157000002423E00AEBE800007808F007020121CC
:10158000914008420BD0EF4B1B681B7983F001029E
:101590007B1999B2331998B2FFF798FC08E0E94B30
:1015A0001B681A797B1999B2331998B2FFF78EFC30
:1015B000601CC4B208F101001FFA80F8E04800681E
:1015C000C06840690078A042D4DC681CC5B2DC4821
:1015D0000068C06840694078A842C9DCBDE8F0876F
:1015E0002DE9F04104460D46D5480068C0680088E2
:1015F000D3490968C968097C00EB410086B2D0482C
:101600000068C0684088CE490968C968497C00EB19
:101610004100CB490968C9684969497801FB05005F
:101620001FFA80F8002716E0207828B94246314694
:101630002020FFF787FF05E014F8010B42463146F2
:10164000FFF780FFBE480068C068406900783044FA
:1016500086B2781CC7B2BA4800688079B842E3DC29
:10166000BDE8F0812DE9F04104460D46B44800681C
:10167000C0680088B2490968C968097C00EB41006C
:1016800086B2AF480068C0684088AD490968C9683B
:10169000497C00EB4100AA490968C9684969497851
:1016A00001FB05001FFA80F8A6480068007980F069
:1016B0000100A44909680871002716E0207828B9BC
:1016C000424631462020FFF73DFF05E014F8010BAC
:1016D00042463146FFF736FF99480068C0684069C6
:1016E0000078304486B2781CC7B29548006880798B
:1016F000B842E3DC93480068007980F0010091492A
:1017000009680871BDE8F0812DE9F04104468C4874
:101710000068C06800888A490968C968097C00EBCC
:10172000410085B286480068C068408884490968DD
:10173000C968497C00EB410081490968C968496969
:10174000497801FB040087B200260DE03A4629469D
:101750002020FFF7F7FE7A480068C06840690078EB
:10176000284485B2701CC6B2754800688079B042C2
:10177000ECDCBDE8F081C2689288C3681B88D21A8D
:10178000C3681B7CA2EB8302521CC3685B691B7895
:1017900092FBF3F28271C268D288C3685B88D21A66
:1017A000C3685B7CA2EB8302521CC3685B695B78F5
:1017B00092FBF3F242710161614A106070477CB59F
:1017C0005F480068007808B9012000E000205D490A
:1017D0000968097948405A4D00902D68ED68EB88FA
:1017E000574D2D68ED68AA88554D2D68ED686988BC
:1017F000534D2D68ED682888FFF744FC5048006879
:10180000007850490968097948404D4D00902D688D
:10181000ED68EB894A4D2D68ED68AA89484D2D6821
:10182000ED686989464D2D68ED682889FFF72AFC27
:1018300043490968896808680021FFF7D1FE4048DC
:101840000068447836E03E480068C078A04210D175
:101850003B4A12689268D26804EB440352F82300B2
:10186000374A12685278A21A521CD1B2FFF7FAFE18
:101870001EE03348006880680079A04210DD304ADD
:1018800012689268D26804EB440352F823002C4A91
:1018900012685278A21A521CD1B2FFF7A1FE07E0DB
:1018A000274909684978611A491CC8B2FFF72CFF1B
:1018B000601CC4B22248006840782149096849790F
:1018C0000844401EA042BEDC1D4800688068C06815
:1018D0001B490968C97801EB410100EB81000079DF
:1018E0008DF8040000208DF8050015480068016996
:1018F000019888477CBD08B5114800688068C068B9
:101900000F490968C97801EB410100EB810080684B
:10191000D0B90B4800688068C06809490968C9786F
:1019200001EB410100EB810000798DF800000120FE
:101930008DF801000248006801690098884725E099
:1019400044000020240000206C4800688068C068C3
:101950006A490968C97801EB410100EB81008068A0
:101960006649096888606548006840786349096885
:10197000887062480068C078604909680871002072
:101980005E49096848705D490968C87008BD08B5B6
:101990005A4800680078B0B1584800688068C0684C
:1019A00056490968C97801EB410100EB81000079D3
:1019B0008DF8000002208DF8010050480068016990
:1019C000009888471AE04D480068C078002815DD67
:1019D0004A480068C078401E48490968C8704748AE
:1019E0000068407845490968C978884206DD43485F
:1019F00000684078401E41490968487008BD08B534
:101A00003E4800680078B0B13C4800688068C06813
:101A10003A490968C97801EB410100EB810000797E
:101A20008DF8000003208DF801003448006801693A
:101A30000098884724E031480068C1782F48006842
:101A400080680079401E81421ADA2C480068C0780C
:101A5000401C2A490968C87028480068C07827498E
:101A600009684978411A254800684079401E81423A
:101A700006D1224800684078401C20490968487017
:101A800008BD1E480068007820B100201B49096885
:101A9000087017E0194800688068806890B117489E
:101AA0000068806880681549096888601348006884
:101AB00080781249096848701048006800790F4919
:101AC0000968C870704720B1012807D0022813D1D7
:101AD00009E00021094A126811700DE00121074A4E
:101AE0001268117008E005490968097881F0010160
:101AF000024A1268117000BF00BF70474400002006
:101B00000648804706480047FEE7FEE7FEE7FEE797
:101B1000FEE7FEE7FEE7FEE7FEE7FEE7011C000842
:101B2000310100080CB50020019000906B4800685E
:101B300040F480306949086000BF6848006800F4DC
:101B4000003000900198401C0190009818B901984D
:101B5000B0F5A06FF1D16148006810F4003F02D0E9
:101B60000120009001E0002000900098012842D15F
:101B70005B48006840F0100059490860084600685A
:101B800020F0030008600846006840F0020008608A
:101B900052484068514948600846406848600846D5
:101BA000406840F4806048600846406820F47C103B
:101BB00048600846406840F4E810486008460068FD
:101BC00040F08070086000BF4448006810F0007F5B
:101BD000FAD04248406820F0030040494860084677
:101BE000406840F00200486000BF3C48406800F098
:101BF0000C000828F9D10CBD10B5FFF793FF10BDFC
:101C000010B53648006840F00100344908600846C5
:101C10004068344908403149486008460068324904
:101C200008402E4908600846006820F480200860BB
:101C30000846406820F4FE0048604FF41F008860AA
:101C4000FFF7DAFF4FF000602849086010BD10B5BB
:101C5000002100200022214B5B6803F00C0121B120
:101C6000042906D0082928D107E0214B214C236004
:101C700027E01F4B1F4C236023E0184B5B6803F4E5
:101C80007010164B5B6803F48032022303EB904024
:101C900022B9194B4343174C23600DE00F4B5B688F
:101CA00013F4003F04D0144B4343124C236003E071
:101CB0000F4B43430F4C236003E00D4B0D4C23604F
:101CC00000BF00BF054B5B68C3F303130B4CE15C23
:101CD000084B1B68CB40074C236010BD001002402E
:101CE000002002400000FFF8FFFFF6FE08ED00E0D4
:101CF00000127A004800002000093D004C0000203E
:101D000031490143314A1160704770B50021002309
:101D10000F22C4780CB32D4C246804F4E064C4F59D
:101D2000E064210AC1F10403CA40447804FA03F1D3
:101D30008478144021430901254C0678A155047884
:101D400004F01F050124AC4005786D114FF0E0262A
:101D500006EB8505C5F8004109E0047804F01F058D
:101D60000124AC401B4D0678761145F8264070BD25
:101D7000194A0A400243154B1B1F1A60704739B1BC
:101D8000124A121D12680243104B1B1D1A6006E016
:101D90000E4A121D126882430C4B1B1D1A607047BD
:101DA000042808D14FF0E021096941F004014FF007
:101DB000E022116107E04FF0E021096921F0040100
:101DC0004FF0E022116170470000FA050CED00E0D1
:101DD00000E400E080E100E080FFFF1FDD480068D4
:101DE00040F00100DB49086008464068DA490840D5
:101DF000D849486008460068D8490840D549086075
:101E00000846006820F4802008600846406820F4F6
:101E1000FE0048604FF41F0088607047CD49096894
:101E200021F48031CB4A11601146096821F48021E8
:101E30001160B0F5803F03D0B0F5802F0ED106E0E1
:101E4000C449096841F48031C24A116007E0C149C0
:101E5000096841F4A021BF4A116000E000BF00BF43
:101E6000704710B501460022002300204A11012AC4
:101E700002D1B84C236806E0022A02D1B54C236A8D
:101E800001E0B44C636A01F01F02012494401C423B
:101E900001D0012000E0002010BD38B500200090E6
:101EA0000024002500BF3120FFF7DBFF0546009826
:101EB000401C00900098B0F5A06F01D0002DF2D02A
:101EC0003120FFF7CEFF08B1012400E000242046B6
:101ED00038BD014600209F4A106820F0F80040EA13
:101EE000C100106070479E4908607047024600209C
:101EF000984B586820F47C1042EA01031843954B34
:101F00005860704796490866704701460020914A1C
:101F1000506820F003000843506070478D484068C7
:101F200000F00C007047014600208A4A506820F0FB
:101F3000F00008435060704701460020854A506811
:101F400020F4E06008435060704701460020814A59
:101F5000506820F4605040EAC1005060704729B1D9
:101F60007C4A527A02437B4B5A7204E0794A527A95
:101F70008243784B5A7270477A490860704701462D
:101F80000020744A506820F4404008435060704775
:101F90000021754A11706F4A82F82010012802D082
:101FA000042808D103E001216F4A117004E00521E3
:101FB0006D4A117000E000BF00BF70476B490860B8
:101FC00070476449096A0143624A11627047674970
:101FD00044390860704730B50021002200240023F6
:101FE0005C4D6D6805F00C0121B1042905D008296C
:101FF00023D105E05E4D056022E05D4D05601FE0E8
:10200000544D6D6805F47012524D6D6805F48034BE
:10201000022505EB92421CB9564D554305600BE075
:102020004C4D6D6815F4003F03D0524D554305608B
:1020300002E04F4D5543056002E04D4D056000BF85
:1020400000BF444D6D6805F0F00109094A4D6B5C15
:102050000568DD4045603F4D6D6805F4E061090AA3
:10206000454D6B5C4568DD4085603A4D6D6805F413
:102070006051C90A404D6B5C4568DD40C560354D17
:102080006D6805F44041890B3C4D6B5CC568B5FB40
:10209000F3F5056130BD29B12E4A526902432D4B3B
:1020A0005A6104E02B4A526982432A4B5A617047B5
:1020B00029B1284A92690243264B9A6104E0254AD5
:1020C00092698243234B9A61704729B1214AD269B0
:1020D0000243204BDA6104E01E4AD26982431D4B61
:1020E000DA61704729B11B4AD2680243194BDA60A2
:1020F00004E0184AD2688243164BDA60704729B16F
:10210000144A12690243134B1A6104E0114A12691E
:102110008243104B1A617047144940390860704778
:102120000F49C86470470B49C87170470948406A35
:1021300040F0807007494862704701460020054A18
:1021400092680A4201D0012000E000207047014956
:1021500088727047001002400000FFF8FFFFF6FE93
:1021600000004242D8004242201002408004424215
:1021700000127A0000093D005C0000206C00002085
:1021800010B50446CA48844208D101210420FFF753
:10219000A9FF00210420FFF7A5FF46E0C5488442BF
:1021A00008D101210820FFF79DFF00210820FFF73B
:1021B00099FF3AE0C048844208D101211020FFF77E
:1021C00091FF00211020FFF78DFF2EE0BB488442D5
:1021D00008D101212020FFF785FF00212020FFF7F3
:1021E00081FF22E0B648844208D101214020FFF758
:1021F00079FF00214020FFF775FF16E0B1488442C7
:1022000008D101218020FFF76DFF00218020FFF71A
:1022100069FF0AE0AC48844207D101218015FFF72D
:1022200061FF0021A015FFF75DFF10BD10B5012172
:102230000846FFF757FF00210120FFF753FF10BDAD
:102240002DE9F0410246002500260020002300244D
:10225000002791F803C00CF00F0591F803C01CF0A3
:10226000100F03D091F802C04CEA050591F800C0A8
:10227000BCF1000F31D0146800202BE04FF0010CAE
:102280000CFA00F3B1F800C00CEA03069E4220D11C
:1022900083004FF00F0C0CFA03F7BC4305FA03FC64
:1022A0004CEA040491F803C0BCF1280F06D14FF0AA
:1022B000010C0CFA00FCC2F814C00AE091F803C04B
:1022C000BCF1480F05D14FF0010C0CFA00FCC2F82C
:1022D00010C0401C0828D1D31460B1F800C0BCF174
:1022E000FF0F34DD546800202EE000F1080C4FF0A1
:1022F000010808FA0CF3B1F800C00CEA03069E428C
:1023000021D183004FF00F0C0CFA03F7BC4305FA00
:1023100003FC4CEA040491F803C0BCF1280F05D17A
:1023200000F1080C08FA0CF8C2F8148091F803C008
:10233000BCF1480F07D100F1080C4FF0010808FA72
:102340000CF8C2F81080401C0828CED35460BDE8B9
:10235000F0814FF6FF710180022181700421C1706C
:1023600070470246002093680B4201D0012000E034
:10237000002070470146886880B2704702460020FE
:10238000D3680B4201D0012000E0002070470146D5
:10239000C86880B2704701617047416170470AB1F7
:1023A000016100E041617047C16070474FF48032C5
:1023B0000A43826181618261826982697047024653
:1023C0000020424B18684FF68073184040EA021014
:1023D00008433E4B186070473D49C8617047F0B5EF
:1023E0000A46002300240021002500F00046B6F133
:1023F000004F02D1354EF16901E0344E7168C0F3EF
:10240000034583B200F44016B6F5401F08D121F011
:1024100070612E4E766826F070662C4F7E6012E05A
:1024200000F48016B6F5801F06D1032606FA05F4DF
:10243000A14341F0706106E0460D360103FA06F64D
:10244000B14341F0706122B1460D360103FA06F640
:10245000314300F00046B6F1004F02D11B4EF1614E
:1024600001E01A4E7160F0BD30B500228B071C0FE1
:102470000F2303FA04F2154B08338C1053F8243061
:102480009343124C08348D1044F8253023468C10A9
:1024900053F824308C07240F00FA04F423430B4C28
:1024A00008348D1044F8253030BD0A490860704763
:1024B00000080140000C01400010014000140140E0
:1024C00000180140001C01400020014000000140B4
:1024D00000002042DC00204200BFFEE7704700BF42
:1024E000FEE70000064C074D06E0E06840F00103FF
:1024F00094E8070098471034AC42F6D3FDF71CFE71
:10250000DC4C0008FC4C00080000000002E008C899
:10251000121F08C1002AFAD170477047002001E05D
:1025200001C1121F002AFBD1704710B5002A06DA3C
:1025300022F00042D21D22F00703102203E0D21C39
:1025400022F003030C2213B19C188C4201D9012004
:1025500010BD024401448360C0E90021C91AD018AB
:10256000884202D810600246F9E70020106010BDD2
:1025700008480068C0010BD507480068C00707D0AD
:10258000054880380068002802DA044901200870F4
:1025900070470000FCED00E0800E00E080000020AD
:1025A0004FF06042D36F002BFCD0436BD367D36FE7
:1025B000002BFCD0C07840EA0120A2F87C007047D4
:1025C0004FF06041CA6F002AFCD081F87C00704750
:1025D000074801684FF0E020416100218161072137
:1025E00001610448016841F07F4101604017704774
:1025F000384C000820ED00E0704750E8001F31B172
:102600000B6840E80032002AF7D108467047BFF354
:102610002F8FFAE770B50D46002812D04FF6FF71E4
:10262000084C884204D222680146104600F0D4F9D2
:1026300020684570044800F0C3F8BDE8704000F021
:102640006DBA70BD74000020EC3E00200F4810B53C
:102650000D4942680E480B680068934204D00A6036
:10266000CB88421E1A448A808A8880B282420AD16C
:1026700000200860054800F0A3F80146BDE81040BE
:10268000024800F0CDB910BD8C000020EC3E0020C7
:102690007C00002070B51A4DE86800282ED0A88A6A
:1026A000401EA882002623E0A06838B1616841601E
:1026B000606810B1A16881606660A660104821461C
:1026C000183800F0ADF9A08AA8826078042804D1F7
:1026D0000C49E08A09880844A0820120607084F8CF
:1026E0002500E068E860E06808B10561E660266101
:1026F000A88A002802D1EC68002CD5D170BD00005A
:10270000043F00207C00002070B504000FD00D4D68
:10271000A17801262868827891420CD900F09CF9B2
:10272000286846702046BDE8704000F0F7B90648BA
:1027300000F046F8F7E766702146BDE870400248B1
:1027400000F06EB974000020EC3E00200321FFF77A
:1027500061BF000010B50446008B084320836278F7
:10276000618B062A16D0052A17D1084215D001EA36
:102770000002628388432083204600F077F901201D
:102780006070022084F825002146BDE8104003480F
:1027900000F046B931EA0002ECD010BDEC3E00205A
:1027A000814202D342688A4201D80120704750E832
:1027B000002F0A6040E80012002AF8D1002070477C
:1027C0000146406842684A600B780022022B05D01F
:1027D000012B03D0032B01D04260704743680BB13B
:1027E000996042608260704770B5044600201546CB
:1027F000207001226270A17084F824106060A060D3
:10280000E06020612062A082E0822083608384F8FF
:10281000250084F82600208D18B90548FFF7EDFE45
:10282000206329462046BDE8704000F00FB8000044
:102830000806002003480021016003490988C1807F
:10284000704700008C000020344C000810B5028D49
:10285000920803D10F4A1288C2F38D02036B03EB77
:102860008202530700D5121F403A4FF08073C2E92D
:102870000E1300234FEA030442F823405B1C0E2B87
:10288000FAD3C3691362C2624163006B02490160FB
:1028900010BD0000304C0008A52E5AE22DE9F04191
:1028A0000F4604464168002004F10C0621B161780E
:1028B00002291AD0A189A9B3A189E289914246D2FD
:1028C000218904EB81010F61D6E85F1F491CC6E82E
:1028D000521F002AF8D12189491C89B22181E2893D
:1028E000914200D12081BDE8F0810746607020460A
:1028F000FFF766FF80F825702189054604EB81010A
:10290000C0690861D6E85F0F401CC6E8510F002976
:10291000F8D12089401C80B22081E18988420BD106
:10292000278109E0FFE72046FFF74AFF0546C06917
:102930000421076085F8251001206870284600F002
:1029400095F82946BDE8F041034800F069B8BDE8B4
:10295000F0410320FFF7C3BDEC3E002070B51B48DB
:10296000012102685170006800F076F8184D6C780B
:1029700017E000BF05EBC40148680278E2B1012A04
:102980001FD000F09FF8E878641C844200D1002436
:102990000F48801CD0E84F1F491EC0E8421F002A84
:1029A000F8D1A8780028E5D16C700A48FFF708FF35
:1029B000BDE8704000F0B2B8098989B2FFF7CAFEDD
:1029C000E1E78968FFF76AFFDDE700007400002097
:1029D000183E0020EC3E0020104A10B5D368ABB181
:1029E00013469B8A03E08CB12246A48A2344D46810
:1029F0008B42F8D3C460D0600261C46804B1206126
:102A0000591A8182908A401A908210BD0024C460B5
:102A1000D060C91A02619182848210BD043F0020F7
:102A200030B502780023022A03D0012A01D0032AFC
:102A300000D101238C7800E01046426812B19578ED
:102A4000A542F9D24A6041601BB102B19160886031
:102A500030BD0020FBE7000003494A6842600022C5
:102A60008260486070470000EC3E002010B50169AC
:102A700000290ED0C268CA60C36800223BB18B8AAD
:102A8000848A23448B82C3681961C26000E08A8211
:102A9000026110BD816839B142684A60416800290D
:102AA00001D0806888607047054906E04A68824224
:102AB00002D140684860704711460029F6D170473E
:102AC000EC3E002010B5416879B1FFF779FE04466D
:102AD000FFF7CCFF01206070032084F82500214619
:102AE000BDE810400348FFF79BBF4188491C418067
:102AF00010BD0000EC3E002006480068D0E90B1035
:102B0000814203D300680449884202D00120FFF7C4
:102B1000E6BC704774000020A52E5AE20749022245
:102B200048604270064A1278002A05D006C98A42D7
:102B300002D0C078FFF744BD704700007400002049
:102B4000800000202DE9F047164688468146FFF7B1
:102B50000FFD002004463E4A3E4902E042F8204074
:102B6000401C0B889842F9D33B48382201883B48E7
:102B7000FFF7DBFC3A48008880B240F00042394859
:102B800001683948FFF7D1FC3848082201883848E5
:102B90000068FFF7CAFC374FFF25374AFD703C85B8
:102BA00000213846FFF720FE3448042101704460BC
:102BB00033480170C46004618482F86A2030FDF7F4
:102BC000C1FA304831490760022078702E480470FD
:102BD00044700978C170FFF72DFE2D48016841F45B
:102BE0007F0101600068290601EA00202849C043EE
:102BF0001439B0FA80F00968C0F10800C1F302216D
:102C0000814200DB481C2249091F0B686FF080726B
:102C1000824063F317020A60FFF7DAFC1D490028BF
:102C200008600CDB1C49455400F01F020121914053
:102C300040114FF0E02202EB8000C0F80011324654
:102C400041464846BDE8F047002300F067B8000061
:102C50009C3E00202C4C0008484C0008A804002092
:102C6000304C00084C4C000808060020524C00086C
:102C700070000020B43E0020D9240008EC3E002063
:102C8000043F002074000020183E0020504C000833
:102C900020ED00E08800002000E400E00C4810B5C2
:102CA0000268012151700068FFF7D6FEFFF7CEFCE5
:102CB00008480168491C0160FFF7ECFC00F00EF8C1
:102CC0000548FFF77DFDBDE81040FFF727BF000076
:102CD000740000207C000020EC3E002070B50D4CFC
:102CE0002068002815D0A0880B4E401EA0800AE066
:102CF000E888FFF7F3FBA888A080286820602946B1
:102D00003068FFF74DFDA088002802D12568002D0E
:102D1000EED170BD94000020700000202DE9F0413C
:102D20001E46174680460C4611F0FF0F00D14C1C82
:102D30001A48FFF762FC05002DD0C4F30F202F6363
:102D40002885E1B242462846EE61FFF74DFD012499
:102D50001348144906E000BF00EB840252F8042C2B
:102D600022B1641C0A889442F6D9002400EB840046
:102D7000E6B240F8045C0C48EE70007818B101210E
:102D80002846FFF70DFC2846FFF7BEFC0748006801
:102D900080F825602046BDE8F0810000A8040020EE
:102DA0009C3E00202C4C0008800000207400002075
:102DB0002DE9F05F544DDFF848B1DFF848A12968EC
:102DC0004FF000084FF00509012610B1CA78824281
:102DD0003FD1474681F80180FDF7B7F92968C862FD
:102DE000FFF78AFE2868B046046A18E06068A8B158
:102DF0002046FFF7E5FC064680F82590FFF736FEF3
:102E000086F8018031464148FFF70AFEA4F80280A7
:102E1000A660316AE1603462E46800E0E468002C96
:102E2000E4D12868C2780AEB820141F8047C016B86
:102E30003748FFF7B5FC286807639BF8001011B10D
:102E40000021FFF7ADFB33482968FFF7A9FC2F608D
:102E500051E03149098888420ED80AEB800757F8BB
:102E6000045C4DB12846FFF715FE2846FFF7FEFD2E
:102E7000CA46B1462C6A1BE0FF20BDE8F09F60689F
:102E8000A8B12046FFF79CFC064680F825A0FFF776
:102E9000EDFD86F8019031461C48FFF7C1FDA4F80E
:102EA0000290A660316AE1603462E46800E0E468A0
:102EB000002CE4D147F8048C44461548296BFFF7F1
:102EC0006FFC2C639BF8000018B100212846FFF727
:102ED00067FB29460F48FFF763FC0C48406882787F
:102EE000094801688B789A4208D981F801900168F5
:102EF0000648FFF795FD0020FFF706FC0020BCE721
:102F0000800000209C3E002074000020EC3E002049
:102F100008060020A80400202C4C00080000000037
:102F200000000000000000000000008140201000B0
:102F300004000000000085420100000000000000C5
:102F400000008042F1517C140A0000000000842738
:102F5000107040200F010000000080A0A220282A4D
:102F6000080000000000802191304412160000008B
:102F70000000028100000000000000000008028143
:102F800040201008040202000002028140201008C4
:102F9000048200000000004041F81014000000000E
:102FA0000000008040F81008000000000000000051
:102FB00000000000040100000000000000F8000014
:102FC00000000000000000000000000004000000FD
:102FD00000000804812010048240000000008023CB
:102FE00092A94C220E00000000000082A140201097
:102FF000080000000000C003024110041F00000090
:103000000000C003026140200F0000000000000427
:1030100043917C20100000000000C027F080402079
:103020000F00000000008023F08844220E00000002
:103030000000C007024110080400000000008023C7
:10304000127144220E0000000000802312897820B3
:103050000E0000000000000040000000040000001E
:103060000000000040000000040100000000088291
:10307000200808080808000000000000F0017C009B
:103080000000000000808080808020088200000016
:103090000000C00302411000040000000000802373
:1030A000D2994C1A010700000000802312897C226B
:1030B000110000000000C023127944220F0000001C
:1030C00000008027100804021E0000000000C0233A
:1030D000128944220F0000000000C02710380402AB
:1030E0001F0000000000C02710380402010000008B
:1030F0000000802710C844221E0000000000402469
:1031000012F94422110000000000808340201008C2
:103110000E00000000000004028140220E000000AA
:10312000000040245118141211000000000040203B
:10313000100804021F00000000004064538944226C
:10314000110000000000402432A964221100000098
:1031500000008023128944220E0000000000C023DA
:1031600012893C02010000000000802312894412F1
:10317000160000000000C02312893C12110000005C
:1031800000008027107040200F0000000000C08762
:10319000402010080400000000004024128944224E
:1031A0000E000000000040241289281404000000D2
:1031B0000000402412895436110000000000402411
:1031C000A22028221100000000004024A2201008A4
:1031D000040000000000C007822008021F00000059
:1031E000000C0281402010080402030000804040CF
:1031F000202010100808040000060281402010085A
:103200000482010000008222020000000000000091
:103210000000000000000000800F0000000001011D
:10322000010000000000000000000000E0807822A3
:103230001E00000000804020F08844220F000000A3
:1032400000000000E00904021E0000000000080465
:10325000E28944221E00000000000000E0887C0299
:103260000E0000000000864060100804020000000C
:1032700000000000E08944221E0803000080402076
:10328000F0884422110000000000000160201008B6
:10329000040000000000000160201008048200000B
:1032A00000008140205118141200000000008140ED
:1032B000201008040C00000000000000B0A8542AF0
:1032C0001100000000000000F088442211000000FE
:1032D00000000000E08844220E0000000000000012
:1032E000F08844228F40000000000000E089442262
:1032F0001E08040000000000D019040201000000B4
:1033000000000000E00938200F00000000008140AC
:10331000701008040C000000000000001089442216
:103320001E000000000000001089281404000000A6
:103330000000000010895436110000000000000059
:1033400010511014110000000000000010894422E8
:103350001E08030000000000F04110041F000000E0
:1033600000080281401010080402020008040281D3
:1033700040201008040201000002028140401008B1
:1033800004820000000000000098320000000000ED
:10339000070C0C001C2F00080000000000000000BB
:1033A000000000000000000000000000000000001D
:1033B000000000010204081020408000000004000A
:1033C00000000000000000004084081122000000FE
:1033D0000000000000000000000000000000408429
:1033E00008117F448810F147840811000000000094
:1033F00000008000C14F80000102F8000204089024
:103400001F040800000000000000C04082242620A5
:1034100020202023091218000000000000000000F6
:10342000C0438810212238081222420A23000000DB
:10343000000000000000000102040800000000007D
:103440000000000000000000004040408000010239
:103450000408102040800001020410400000001009
:1034600040000102040810204080000102040810FE
:103470001010000000000000000000111410FC41BA
:1034800040410400000000000000000000000000B7
:1034900000040810FC418000010000000000000052
:1034A000000000000000000000000000000000001C
:1034B00004080800000000000000000000000000F8
:1034C000FC010000000000000000000000000000FF
:1034D00000000000000000000000000004000000E8
:1034E0000000000000000408081010202040408068
:1034F000800001010200000000000000C047902091
:1035000061A22429322448101F000000000000009E
:10351000000000040C142444800001020408100080
:103520000000000000000000E00710204040808004
:10353000808080803F000000000000000000E00765
:1035400010204080E000020408901F0000000000EE
:103550000000000000081828488808F90304081033
:1035600020000000000000000000E04F8000017E0D
:103570000001020408901F0000000000000000008D
:10358000C0478000017E0409122448101F0000007B
:10359000000000000000E00F10204040404080008C
:1035A000010204000000000000000000C04790205D
:1035B0004182F808122448101F000000000000009B
:1035C0000000C0479020418204F1030408101F004E
:1035D00000000000000000000000000000100000DB
:1035E00000000000040000000000000000000000D7
:1035F00000000010000000000000040808000000A7
:103600000000000004040404040404104000010449
:1036100010400000000000000000000000007F00DB
:103620000000F00700000000000000000000001093
:1036300040000104104000010101010101010000EE
:10364000000000000000E0071020404040408000E3
:10365000000004000000000000000000C0479020AF
:103660007D860C1932A44780003E00000000000057
:103670000000C0479020418204F9132448902000A4
:103680000000000000000000E04790204182FC089C
:10369000122448901F000000000000000000C04FEE
:1036A000800001020408102040003F0000000000DC
:1036B00000000000E0479020418204091224489055
:1036C0001F000000000000000000E04F8000010229
:1036D0003C08102040803F00000000000000000077
:1036E000E04F800001023C081020408000000000F4
:1036F000000000000000C04F80000102C409122435
:1037000048103F000000000000000000204890200A
:103710004182FC09122448902000000000000000B3
:1037200000008003020408102040800001020E0007
:103730000000000000000000000810204080000190
:10374000020448101F000000000000000000204894
:103750008808090A0C2890204288200000000000F8
:10376000000000002040800001020408102040807A
:103770003F00000000000000000020C8982A498295
:1037800004091224489020000000000000000000FE
:1037900020489020438A2489122648902000000067
:1037A000000000000000C04790204182040912245C
:1037B00048101F000000000000000000E0479020BB
:1037C000418204F911204080000000000000000048
:1037D0000000C04790204182040992244A082F002B
:1037E0000000000000000000E0479020418204F942
:1037F0001122449020000000000000000000C04F93
:1038000080000102F800020408901F000000000080
:1038100000000000E00F02040810204080000102B8
:1038200004000000000000000000204890204182B9
:103830000409122448101F000000000000000000CE
:103840002048902041828810218202050400000057
:10385000000000000000204890204182040992A44A
:10386000CA982000000000000000000020489020BE
:10387000222820A020224890200000000000000004
:1038800000002048902022282040800001020400EF
:103890000000000000000000E00F10202020202089
:1038A000202040803F00000000000000E040800039
:1038B000010204081020408000010204087000008A
:1038C00000000010208000010408204000010208D0
:1038D0001040800000000000E000010204081020F9
:1038E0004080000102040810207000000000000069
:1038F00000010511000000000000000000000000B1
:1039000000000000000000000000000000000000B7
:1039100000000000FE00000000000000800002081F
:103920000000000000000000000000000000000097
:10393000000000000000007C0001E22748103F006A
:10394000000000000000001020408000017E0409FB
:10395000122448901F00000000000000000000003A
:10396000000000FC0408102040003F0000000000A0
:10397000000000000408102040FC04091224481034
:103980003F00000000000000000000000000007C7C
:103990000409F22740001F00000000000000008022
:1039A0008300010204381020408000010200000062
:1039B0000000000000000000000000FC04091224C8
:1039C00048103F4080F000000000001020408000C0
:1039D000017E04091224489020000000000000002D
:1039E00000000000020000182040800001020400D6
:1039F000000000000000000000000200001820404D
:103A00008000010204081010000000000020408027
:103A10000001024448506040810411000000000091
:103A200000000040800001020408102040800001D6
:103A30001C00000000000000000000000000006EFC
:103A40002449922449922000000000000000000058
:103A500000000000007E04091224489020000000AD
:103A600000000000000000000000007C0409122497
:103A700048101F00000000000000000000000000CF
:103A8000007E0409122448901F0102040000000077
:103A900000000000000000FC0409122448103F4010
:103AA00080000100000000000000000000FA0C0887
:103AB0001020408000000000000000000000000016
:103AC000000000FC0408E00308901F000000000054
:103AD0000000004080000102043C102040800001F2
:103AE0001C00000000000000000000000000008238
:103AF0000409122448103F000000000000000000EC
:103B00000000000000820411218202050400000070
:103B1000000000000000000000000082040992A4E0
:103B2000CA98200000000000000000000000000013
:103B3000008288A0808082882000000000000000B1
:103B400000000000000000820409122448103F40D9
:103B500080F00000000000000000000000FE8080F7
:103B6000808080803F000000000000008080000115
:103B70000204081010208000010204081040000018
:103B80000000408000010204081020408000010273
:103B9000040810200000000020800001020408102A
:103BA00040808000010204081010000000000000A6
:103BB00000000000000018480203000000000000A0
:103BC00000000000091216009833000800000000F1
:103BD00000000000000000000000000000000000E5
:103BE00000000000000000000000000000000000D5
:103BF00000000000000000000000006000066000FF
:103C00000660000660000660000600000060000616
:103C1000000000000000000000000000000098818B
:103C20001998811998811900000000000000000017
:103C30000000000000000000000000000000000084
:103C400000000000000000988119988119FEE77FAC
:103C5000988119FEE77F988119988119000000006A
:103C600000000000000000000000C0000CF8C77F4A
:103C7000066000066000FC813F000660000660FEF2
:103C8000E31F3000030000000000000000000000FF
:103C900000000018C003666676BC831DE00007B80C
:103CA000C13D6E6666C00318000000000000000001
:103CB00000000000000000000078C00F8661188638
:103CC0006118FCC00706663086611C7C83630000B7
:103CD000000000000000000000000000600006601E
:103CE0000006600006000000000000000000000068
:103CF0000000000000000000000000000000008044
:103D0000010C6000066000066000066000066000AE
:103D100006600006600006600006600006C000182D
:103D2000000000000018000360000660000660004C
:103D3000066000066000066000066000066000067F
:103D4000600006308001000000000000000000005C
:103D5000000000000C8319F00006FEE77F60000FF2
:103D600098C13000000000000000000000000000CA
:103D70000000000000000000000060000660000677
:103D8000FEE77F6000066000060000000000000003
:103D90000000000000000000000000000000000023
:103DA00000000000000000000000000000000060B3
:103DB000000630800100000000000000000000004C
:103DC000000000000000000000000000FEE77F008F
:103DD00000000000000000000000000000000000E3
:103DE00000000000000000000000000000000000D3
:103DF000000000000000000000000060000600005D
:103E00000000000000000000000000000000600052
:103E1000063000031880010CC000066000033080EB
:103E20000118C0000C600006000000000000000047
:103E30000000000000F0801F0C63600667684666A3
:103E40006216E66006C630F8010F000000000000B0
:103E50000000000000000000000000000118C00188
:103E60001EB0811980011880011880011880011886
:103E70000000000000000000000000000000000042
:103E800000FEE13F000660000660000318C0000667
:103E9000308001FCE77F000000000000000000000F
:103EA00000000000000000FEE13F00066000066028
:103EB000E0033E000660000660FEE31F0000000015
:103EC000000000000000000000000000000004608E
:103ED000000778C00666308661FCE77F0006600058
:103EE000066000000000000000000000000000006C
:103EF000000000FEE77F066000FEE13F0006600074
:103F00000660000660FEE31F0000000000000000E5
:103F1000000000000000000000F8C11F066000FE65
:103F2000E13F066660066660066660FC831F00006F
:103F3000000000000000000000000000000000FE83
:103F4000E77F00066000063080010C60000660001C
:103F500006600006000000000000000000000000F5
:103F60000000000000F8C13F066660066660FCC302
:103F70003F066660066660FC831F000000000000CC
:103F80000000000000000000000000F8C13F0666CD
:103F900060066660066660FC877F000660F8831F27
:103FA0000000000000000000000000000000000011
:103FB000000000000000006000060000000000009B
:103FC000000000600006000000000000000000008B
:103FD000000000000000000000000000006000067B
:103FE00000000000000000000060000630800100BA
:103FF0000000000000000000000000063080010CFE
:1040000060000318C0000660000C8001300006C08C
:104010000018000360000000000000000000000025
:10402000000000000000000000FEE77F000000FE2E
:10403000E77F00000000000000000000000000001A
:1040400000000000000006C00018000360000C80A3
:104050000130000660000318C000063080010C60CB
:10406000000000000000000000000000000000FE52
:10407000E13F00066000063080010C600006000091
:1040800000600006000000000000000000000000CA
:104090000000000000F0801F0C6360C6677E36667B
:1040A00063366663E6631C06C000F8011F0000006B
:1040B0000000000000000000000000F8C13F06669C
:1040C00060066660066660FEE77F066660066660FC
:1040D00000000000000000000000000000000000E0
:1040E00000FEE13F066660066660FEE33F0666602E
:1040F000066660FEE31F00000000000000000000F4
:1041000000000000000000F8C77F066000066000A5
:10411000066000066000066000FC877F000000006B
:1041200000000000000000000000000000FEE13F71
:10413000066660066660066660066660066660FE85
:10414000E31F00000000000000000000000000006D
:10415000000000FEE77F0660000660007EE00706C4
:104160006000066000FEE77F000000000000000025
:10417000000000000000000000FEE77F066000066F
:1041800060007EE007066000066000066000000038
:10419000000000000000000000000000000000F827
:1041A000C77F066000066000866778066660066660
:1041B00060FC877F0000000000000000000000009D
:1041C0000000000000066660066660066660FEE7A6
:1041D0007F066660066660066660000000000000FC
:1041E0000000000000000000000000F0000F600070
:1041F00006600006600006600006600006F0000F22
:1042000000000000000000000000000000000000AE
:1042100000000660000660000660000660000660A0
:10422000006660FC831F000000000000000000002A
:104230000000000000000006663086610C66600326
:104240001EE001366006C6601806636000000000CC
:1042500000000000000000000000000000066000F8
:10426000066000066000066000066000066000FE52
:10427000E77F0000000000000000000000000000D8
:104280000000000264600EE779F666660666600666
:1042900066600666600666600000000000000000C0
:1042A00000000000000000000006666006E6601ED8
:1042B000666366666C866770066660066660000008
:1042C000000000000000000000000000000000F8F6
:1042D000C13F066660066660066660066660066642
:1042E00060FC831F000000000000000000000000D0
:1042F0000000000000FEE13F06666006666006669C
:1043000060FEE31F06600006600000000000000081
:104310000000000000000000000000F8C13F066639
:1043200060066660066660066660C666587C836FD7
:10433000000000000000000000000000000000007D
:1043400000FEE13F066660066660066660FEE31FEB
:10435000C660180663600000000000000000000056
:1043600000000000000000F8C77F06600006600043
:10437000FC813F000660000660FEE31F00000000B5
:1043800000000000000000000000000000FEE77FC9
:1043900060000660000660000660000660000660BF
:1043A0000006000000000000000000000000000007
:1043B00000000006666006666006666006666006C7
:1043C0006660066660FC831F0000000000000000BD
:1043D0000000000000000000000666600666600C39
:1043E000C3300C8319988119F0000F60000600009B
:1043F00000000000000000000000000000000006B7
:10440000666006666006666006666066666F9EE7C2
:1044100070062640000000000000000000000000C0
:10442000000000000006666006C63098010F6000BC
:1044300006F080190C636006666000000000000052
:104440000000000000000000000000066660066634
:10445000600C8319F000066000066000066000062C
:10446000000000000000000000000000000000004C
:1044700000FEE77F00063080010C60000318C000DA
:10448000066000FEE77F0000000000000000000062
:1044900000E0011E60000660000660000660000685
:1044A000600006600006600006600006600006E02E
:1044B000011E000000000000000000600006C000B7
:1044C0000C800118000330000660000CC00018804A
:1044D0000130000360000600000000000078800743
:1044E000600006600006600006600006600006606E
:1044F0000006600006600006600006788007000085
:1045000000000000000060000F98C13006060000A7
:10451000000000000000000000000000000000009B
:10452000000000000000000000000000000000008B
:10453000000000000000000000000000000000007B
:1045400000000000FEE77F00000000000000000007
:10455000000018000360000C800100000000000053
:10456000000000000000000000000000000000004B
:10457000000000000000000000000000000000003B
:1045800000F8813F000660F8C77F066660FC877F01
:1045900000000000000000000000000000000660B5
:1045A00000066000066000FEE13F06666006666089
:1045B000066660FEE31F000000000000000000002F
:1045C00000000000000000000000000000F8C77FAD
:1045D000066000066000066000FC877F00000000A7
:1045E00000000000000000000000000660000660FF
:1045F000000660F8C77F066660066660066660FCB7
:10460000877F0000000000000000000000000000A4
:10461000000000000000000000F8C13F066660FED8
:10462000E77F066000FC811F000000000000000022
:10463000000000000000E0011F18800118800178D0
:10464000800718800118800118800118800100007F
:10465000000000000000000000000000000000005A
:104660000000000000F8C77F066660066660066608
:1046700060FC877F000660F0031F00000000000060
:104680000000066000066000066000FEE13F06666E
:104690006006666006666006666000000000000056
:1046A00000000000000000000000006000060000A4
:1046B00000700007600006600006600006600006EB
:1046C00000000000000000000000000000000000EA
:1046D0000060000600000070000760000660000631
:1046E00060000660000660000630800100000000E7
:1046F000000000000CC0000CC0000CC0000CC3186F
:10470000CCC0063CC0036CC00C8CC1300000000063
:104710000000000000000000000018800118800167
:10472000188001188001188001188001188001F09C
:10473000011E00000000000000000000000000005A
:104740000000000000000000009EE13F6666666613
:10475000666666666606666000000000000000008F
:10476000000000000000000000000000000000FE4B
:10477000E13F0666600666600666600666600000E9
:104780000000000000000000000000000000000029
:104790000000000000F8C13F06666006666006661D
:1047A00060FC831F0000000000000000000000000B
:1047B0000000000000000000000000FEE13F06666F
:1047C00060066660066660FEE31F06600006600025
:1047D00000000000000000000000000000000000D9
:1047E00000F8C77F066660066660066660FC877F25
:1047F00000066000066000000000000000000000ED
:1048000000000000000000E6677F1EE00006600078
:1048100006600006600000000000000000000000CC
:1048200000000000000000000000000000F8C77F4A
:10483000066000FC813F000660FEE31F00000000F0
:104840000000000000000000000030000330000302
:10485000300003FCC00F300003300003300003E0E1
:10486000033C000000000000000000000000000009
:10487000000000000000000000066660066660069A
:104880006660066660FC877F000000000000000094
:104890000000000000000000000000000000000612
:1048A000666006C6300C831998010FF00006000000
:1048B00000000000000000000000000000000000F8
:1048C000000000000006666006666066666F9EE790
:1048D00070062640000000000000000000000000FC
:1048E000000000000000000000000006C630980133
:1048F0000F600006F080190C6360000000000000EB
:1049000000000000000000000000000000000000A7
:1049100000066660066660066660066660FC877F65
:10492000000660F0031F000000000000000000000F
:1049300000000000000000FEE73F80010C60000363
:1049400018C000FEE77F000000000000000000002B
:104950000080010C60000660000660000660000632
:10496000388003600006600006600006600006C034
:104970000018000060000660000660000660000687
:1049800060000660000660000660000660000660C9
:10499000000660000660000600000000001800032A
:1049A000600006600006600006600006C0011C6032
:1049B000000660000660000660000630800100000E
:1049C00000000000000000000000000000000000E7
:1049D000000038C667E6631C00000000000000000D
:1049E00000000000000000000C182600CC3B00086E
:1049F000000132003200FFFFFFFFFFFFC0C00000D8
:104A0000000000C0A0000000000140900000000075
:104A100002408800000000044084000000000840BC
:104A200082000000001040810000000020408080D3
:104A300000000040408040000000804080200000D6
:104A400001004080100000020040800800000400C7
:104A500040800400000800408002000010004080F8
:104A600001000020004080008000400040800040A5
:104A70000080004080002001000040800010020003
:104A8000004080000804000040800004080000404E
:104A900080000210000040800001200000408000E3
:104AA00000C0000040800000C000004080000120E5
:104AB0000000408000021000004080000408000058
:104AC0004080000804000040800010020000408088
:104AD00000200100004080004000800040800080F5
:104AE00000400040800100002000408002000010D3
:104AF00000408004000008004080080000040040DE
:104B00008010000002004080200000010040804032
:104B100000000080408080000000404081000000D4
:104B200000204082000000001040840000000008C7
:104B3000408800000000044090000000000240A0F7
:104B4000000000000140C00000000000C0FFFFFFA7
:104B5000FFFFFFC06A4C00080600000000000000D4
:104B6000644B0008D14C0008000000000000000069
:104B7000854C000801000000000000008F4C000878
:104B80000200000000000000984C00080300000034
:104B900000000000584C000804000000AC4B000866
:104BA000614C000805000000D44B0008734C00085D
:104BB00002000000544B0008BC4B0008A14C000848
:104BC0000600000000000000B14C000807000000D3
:104BD000000000007C4C000804000000544B00085A
:104BE000E44B0008A94C0008080000000000000089
:104BF000B94C00080900000000000000C14C00088A
:104C00000A00000000000000C94C00080B00000072
:104C100000000000000000003F003F0040000000D6
:104C20007F003F00020100009033000806000000F2
:104C3000000800010A0001003F1901000100000006
:104C4000E8030000000000005C01000010380000D4
:104C50001000000049000400352E62202020202092
:104C600000362E6320202020200020204D454E5568
:104C70002020002020352E20622020002020362EEB
:104C80002063202000322E614974656D202000339E
:104C90002E614974656D2000342E614974656D2064
:104CA00000312E624261636B00312E634261636B9F
:104CB00000322E624974656D00322E634974656D51
:104CC00000332E634974656D00342E634974656D3D
:104CD00000312E614578697400000000FC4C00082A
:104CE000000000209C0000000C250008984D0008E2
:104CF0009C000020844200001C25000800000000E9
:104D000000000000000000000000000000000000A3
:104D10000000000000000000000000000000000093
:104D2000000000000000000000000000544B0008DC
:104D3000144C000800000000020002000101000005
:104D40000000000000A24A04000000000000000073
:104D50000102030406070809000000000102030421
:104D60000102030406070809020406080000000007
:104D70000000000000000000000000000000000033
:104D80000000000000000000000000000000000023
:084D900000000000000000001B
:0400000508001B01D3
:00000001FF
